{
  "_format": "hh-sol-artifact-1",
  "contractName": "SpiralCooperative",
  "sourceName": "contracts/SpiralCooperative.sol",
  "abi": [
    {
      "inputs": [
        {
          "internalType": "address[]",
          "name": "_guardians",
          "type": "address[]"
        }
      ],
      "stateMutability": "nonpayable",
      "type": "constructor"
    },
    {
      "anonymous": false,
      "inputs": [
        {
          "indexed": true,
          "internalType": "uint256",
          "name": "id",
          "type": "uint256"
        },
        {
          "indexed": false,
          "internalType": "address",
          "name": "by",
          "type": "address"
        }
      ],
      "name": "ProposalApproved",
      "type": "event"
    },
    {
      "anonymous": false,
      "inputs": [
        {
          "indexed": true,
          "internalType": "uint256",
          "name": "id",
          "type": "uint256"
        },
        {
          "indexed": false,
          "internalType": "string",
          "name": "purpose",
          "type": "string"
        },
        {
          "indexed": false,
          "internalType": "string",
          "name": "purposeToneform",
          "type": "string"
        },
        {
          "indexed": false,
          "internalType": "address",
          "name": "recipient",
          "type": "address"
        },
        {
          "indexed": false,
          "internalType": "uint256",
          "name": "amount",
          "type": "uint256"
        },
        {
          "indexed": false,
          "internalType": "uint256",
          "name": "expirationBlock",
          "type": "uint256"
        }
      ],
      "name": "ProposalCreated",
      "type": "event"
    },
    {
      "anonymous": false,
      "inputs": [
        {
          "indexed": true,
          "internalType": "uint256",
          "name": "id",
          "type": "uint256"
        }
      ],
      "name": "ProposalExecuted",
      "type": "event"
    },
    {
      "anonymous": false,
      "inputs": [
        {
          "indexed": true,
          "internalType": "uint256",
          "name": "id",
          "type": "uint256"
        }
      ],
      "name": "ProposalExpired",
      "type": "event"
    },
    {
      "inputs": [
        {
          "internalType": "uint256",
          "name": "_id",
          "type": "uint256"
        }
      ],
      "name": "approveProposal",
      "outputs": [],
      "stateMutability": "nonpayable",
      "type": "function"
    },
    {
      "inputs": [
        {
          "internalType": "string",
          "name": "_purpose",
          "type": "string"
        },
        {
          "internalType": "string",
          "name": "_purposeToneform",
          "type": "string"
        },
        {
          "internalType": "address payable",
          "name": "_recipient",
          "type": "address"
        },
        {
          "internalType": "uint256",
          "name": "_amount",
          "type": "uint256"
        }
      ],
      "name": "createProposal",
      "outputs": [],
      "stateMutability": "nonpayable",
      "type": "function"
    },
    {
      "inputs": [
        {
          "internalType": "uint256",
          "name": "_id",
          "type": "uint256"
        }
      ],
      "name": "getProposal",
      "outputs": [
        {
          "internalType": "string",
          "name": "purpose",
          "type": "string"
        },
        {
          "internalType": "string",
          "name": "purposeToneform",
          "type": "string"
        },
        {
          "internalType": "address",
          "name": "recipient",
          "type": "address"
        },
        {
          "internalType": "uint256",
          "name": "amount",
          "type": "uint256"
        },
        {
          "internalType": "uint256",
          "name": "approvals",
          "type": "uint256"
        },
        {
          "internalType": "uint256",
          "name": "creationBlock",
          "type": "uint256"
        },
        {
          "internalType": "uint256",
          "name": "expirationBlock",
          "type": "uint256"
        },
        {
          "internalType": "bool",
          "name": "executed",
          "type": "bool"
        }
      ],
      "stateMutability": "view",
      "type": "function"
    },
    {
      "inputs": [
        {
          "internalType": "uint256",
          "name": "",
          "type": "uint256"
        }
      ],
      "name": "guardianList",
      "outputs": [
        {
          "internalType": "address",
          "name": "",
          "type": "address"
        }
      ],
      "stateMutability": "view",
      "type": "function"
    },
    {
      "inputs": [
        {
          "internalType": "address",
          "name": "",
          "type": "address"
        }
      ],
      "name": "guardians",
      "outputs": [
        {
          "internalType": "bool",
          "name": "",
          "type": "bool"
        }
      ],
      "stateMutability": "view",
      "type": "function"
    },
    {
      "inputs": [],
      "name": "minimumQuorum",
      "outputs": [
        {
          "internalType": "uint256",
          "name": "",
          "type": "uint256"
        }
      ],
      "stateMutability": "view",
      "type": "function"
    },
    {
      "inputs": [],
      "name": "proposalCount",
      "outputs": [
        {
          "internalType": "uint256",
          "name": "",
          "type": "uint256"
        }
      ],
      "stateMutability": "view",
      "type": "function"
    },
    {
      "inputs": [],
      "name": "proposalExpirationBlocks",
      "outputs": [
        {
          "internalType": "uint256",
          "name": "",
          "type": "uint256"
        }
      ],
      "stateMutability": "view",
      "type": "function"
    },
    {
      "inputs": [
        {
          "internalType": "uint256",
          "name": "",
          "type": "uint256"
        }
      ],
      "name": "proposals",
      "outputs": [
        {
          "internalType": "string",
          "name": "purpose",
          "type": "string"
        },
        {
          "internalType": "string",
          "name": "purposeToneform",
          "type": "string"
        },
        {
          "internalType": "address payable",
          "name": "recipient",
          "type": "address"
        },
        {
          "internalType": "uint256",
          "name": "amount",
          "type": "uint256"
        },
        {
          "internalType": "uint256",
          "name": "approvals",
          "type": "uint256"
        },
        {
          "internalType": "uint256",
          "name": "creationBlock",
          "type": "uint256"
        },
        {
          "internalType": "uint256",
          "name": "expirationBlock",
          "type": "uint256"
        },
        {
          "internalType": "bool",
          "name": "executed",
          "type": "bool"
        }
      ],
      "stateMutability": "view",
      "type": "function"
    },
    {
      "inputs": [
        {
          "internalType": "uint256",
          "name": "_q",
          "type": "uint256"
        }
      ],
      "name": "setMinimumQuorum",
      "outputs": [],
      "stateMutability": "nonpayable",
      "type": "function"
    },
    {
      "inputs": [
        {
          "internalType": "uint256",
          "name": "_blocks",
          "type": "uint256"
        }
      ],
      "name": "setProposalExpirationBlocks",
      "outputs": [],
      "stateMutability": "nonpayable",
      "type": "function"
    },
    {
      "inputs": [],
      "name": "steward",
      "outputs": [
        {
          "internalType": "address",
          "name": "",
          "type": "address"
        }
      ],
      "stateMutability": "view",
      "type": "function"
    },
    {
      "inputs": [
        {
          "internalType": "address payable",
          "name": "_to",
          "type": "address"
        }
      ],
      "name": "withdrawAll",
      "outputs": [],
      "stateMutability": "nonpayable",
      "type": "function"
    },
    {
      "stateMutability": "payable",
      "type": "receive"
    }
  ],
  "bytecode": "0x608060405260036004556105a060055534801561001b57600080fd5b50604051611f57380380611f57833981810160405281019061003d9190610356565b336000806101000a81548173ffffffffffffffffffffffffffffffffffffffff021916908373ffffffffffffffffffffffffffffffffffffffff16021790555060005b81518110156101845760018060008484815181106100a1576100a061039f565b5b602002602001015173ffffffffffffffffffffffffffffffffffffffff1673ffffffffffffffffffffffffffffffffffffffff16815260200190815260200160002060006101000a81548160ff021916908315150217905550600282828151811061010f5761010e61039f565b5b60200260200101519080600181540180825580915050600190039060005260206000200160009091909190916101000a81548173ffffffffffffffffffffffffffffffffffffffff021916908373ffffffffffffffffffffffffffffffffffffffff1602179055508080600101915050610080565b50506103ce565b6000604051905090565b600080fd5b600080fd5b600080fd5b6000601f19601f8301169050919050565b7f4e487b7100000000000000000000000000000000000000000000000000000000600052604160045260246000fd5b6101ed826101a4565b810181811067ffffffffffffffff8211171561020c5761020b6101b5565b5b80604052505050565b600061021f61018b565b905061022b82826101e4565b919050565b600067ffffffffffffffff82111561024b5761024a6101b5565b5b602082029050602081019050919050565b600080fd5b600073ffffffffffffffffffffffffffffffffffffffff82169050919050565b600061028c82610261565b9050919050565b61029c81610281565b81146102a757600080fd5b50565b6000815190506102b981610293565b92915050565b60006102d26102cd84610230565b610215565b905080838252602082019050602084028301858111156102f5576102f461025c565b5b835b8181101561031e578061030a88826102aa565b8452602084019350506020810190506102f7565b5050509392505050565b600082601f83011261033d5761033c61019f565b5b815161034d8482602086016102bf565b91505092915050565b60006020828403121561036c5761036b610195565b5b600082015167ffffffffffffffff81111561038a5761038961019a565b5b61039684828501610328565b91505092915050565b7f4e487b7100000000000000000000000000000000000000000000000000000000600052603260045260246000fd5b611b7a806103dd6000396000f3fe6080604052600436106100c65760003560e01c80637cdc2eb71161007f57806398951b561161005957806398951b561461028c578063c7f758a8146102b5578063da35c664146102f9578063fa09e63014610324576100cd565b80637cdc2eb71461020d5780638160f0b5146102365780638a89738714610261576100cd565b8063013cf08b146100d25780630633b14a1461011657806354bc4ae6146101535780635ec005fa1461017c578063637eea19146101b95780636f698fb5146101e4576100cd565b366100cd57005b600080fd5b3480156100de57600080fd5b506100f960048036038101906100f49190610f45565b61034d565b60405161010d98979695949392919061106d565b60405180910390f35b34801561012257600080fd5b5061013d60048036038101906101389190611137565b6104d2565b60405161014a9190611164565b60405180910390f35b34801561015f57600080fd5b5061017a60048036038101906101759190610f45565b6104f2565b005b34801561018857600080fd5b506101a3600480360381019061019e9190610f45565b61058a565b6040516101b0919061118e565b60405180910390f35b3480156101c557600080fd5b506101ce6105c9565b6040516101db919061118e565b60405180910390f35b3480156101f057600080fd5b5061020b60048036038101906102069190610f45565b6105ed565b005b34801561021957600080fd5b50610234600480360381019061022f919061130a565b610685565b005b34801561024257600080fd5b5061024b61083b565b60405161025891906113a9565b60405180910390f35b34801561026d57600080fd5b50610276610841565b60405161028391906113a9565b60405180910390f35b34801561029857600080fd5b506102b360048036038101906102ae9190610f45565b610847565b005b3480156102c157600080fd5b506102dc60048036038101906102d79190610f45565b610b06565b6040516102f09897969594939291906113c4565b60405180910390f35b34801561030557600080fd5b5061030e610cb0565b60405161031b91906113a9565b60405180910390f35b34801561033057600080fd5b5061034b60048036038101906103469190611450565b610cb6565b005b6006602052806000526040600020600091509050806000018054610370906114ac565b80601f016020809104026020016040519081016040528092919081815260200182805461039c906114ac565b80156103e95780601f106103be576101008083540402835291602001916103e9565b820191906000526020600020905b8154815290600101906020018083116103cc57829003601f168201915b5050505050908060010180546103fe906114ac565b80601f016020809104026020016040519081016040528092919081815260200182805461042a906114ac565b80156104775780601f1061044c57610100808354040283529160200191610477565b820191906000526020600020905b81548152906001019060200180831161045a57829003601f168201915b5050505050908060020160009054906101000a900473ffffffffffffffffffffffffffffffffffffffff16908060030154908060040154908060050154908060060154908060070160009054906101000a900460ff16905088565b60016020528060005260406000206000915054906101000a900460ff1681565b60008054906101000a900473ffffffffffffffffffffffffffffffffffffffff1673ffffffffffffffffffffffffffffffffffffffff163373ffffffffffffffffffffffffffffffffffffffff1614610580576040517f08c379a000000000000000000000000000000000000000000000000000000000815260040161057790611529565b60405180910390fd5b8060058190555050565b6002818154811061059a57600080fd5b906000526020600020016000915054906101000a900473ffffffffffffffffffffffffffffffffffffffff1681565b60008054906101000a900473ffffffffffffffffffffffffffffffffffffffff1681565b60008054906101000a900473ffffffffffffffffffffffffffffffffffffffff1673ffffffffffffffffffffffffffffffffffffffff163373ffffffffffffffffffffffffffffffffffffffff161461067b576040517f08c379a000000000000000000000000000000000000000000000000000000000815260040161067290611529565b60405180910390fd5b8060048190555050565b600160003373ffffffffffffffffffffffffffffffffffffffff1673ffffffffffffffffffffffffffffffffffffffff16815260200190815260200160002060009054906101000a900460ff16610711576040517f08c379a000000000000000000000000000000000000000000000000000000000815260040161070890611595565b60405180910390fd5b600060066000600354815260200190815260200160002090508481600001908161073b9190611761565b508381600101908161074d9190611761565b50828160020160006101000a81548173ffffffffffffffffffffffffffffffffffffffff021916908373ffffffffffffffffffffffffffffffffffffffff160217905550818160030181905550438160050181905550600554436107b19190611862565b816006018190555060008160070160006101000a81548160ff0219169083151502179055506003547f4c9472e4f5f2bd419ac4b5d05d084681c6e2db988579b0c05204c0eea14e61698686868686600601546040516108149594939291906118eb565b60405180910390a26003600081548092919061082f9061194c565b91905055505050505050565b60045481565b60055481565b600160003373ffffffffffffffffffffffffffffffffffffffff1673ffffffffffffffffffffffffffffffffffffffff16815260200190815260200160002060009054906101000a900460ff166108d3576040517f08c379a00000000000000000000000000000000000000000000000000000000081526004016108ca90611595565b60405180910390fd5b60006006600083815260200190815260200160002090508060070160009054906101000a900460ff161561093c576040517f08c379a0000000000000000000000000000000000000000000000000000000008152600401610933906119e0565b60405180910390fd5b8060080160003373ffffffffffffffffffffffffffffffffffffffff1673ffffffffffffffffffffffffffffffffffffffff16815260200190815260200160002060009054906101000a900460ff16156109cb576040517f08c379a00000000000000000000000000000000000000000000000000000000081526004016109c290611a4c565b60405180910390fd5b8060060154431115610a3f57817f88e53c486703527139dfc8d97a1e559d9bd93d3f9d52cda4e06564111e7a264360405160405180910390a26040517f08c379a0000000000000000000000000000000000000000000000000000000008152600401610a3690611ab8565b60405180910390fd5b60018160080160003373ffffffffffffffffffffffffffffffffffffffff1673ffffffffffffffffffffffffffffffffffffffff16815260200190815260200160002060006101000a81548160ff021916908315150217905550806004016000815480929190610aae9061194c565b9190505550817f049c28adfe50bcf1b76fd95273b6a24566b9f377e52fddc653c3355248dad07a33604051610ae3919061118e565b60405180910390a2600454816004015410610b0257610b0182610d8e565b5b5050565b6060806000806000806000806000600660008b8152602001908152602001600020905080600001816001018260020160009054906101000a900473ffffffffffffffffffffffffffffffffffffffff1683600301548460040154856005015486600601548760070160009054906101000a900460ff16878054610b88906114ac565b80601f0160208091040260200160405190810160405280929190818152602001828054610bb4906114ac565b8015610c015780601f10610bd657610100808354040283529160200191610c01565b820191906000526020600020905b815481529060010190602001808311610be457829003601f168201915b50505050509750868054610c14906114ac565b80601f0160208091040260200160405190810160405280929190818152602001828054610c40906114ac565b8015610c8d5780601f10610c6257610100808354040283529160200191610c8d565b820191906000526020600020905b815481529060010190602001808311610c7057829003601f168201915b505050505096509850985098509850985098509850985050919395975091939597565b60035481565b60008054906101000a900473ffffffffffffffffffffffffffffffffffffffff1673ffffffffffffffffffffffffffffffffffffffff163373ffffffffffffffffffffffffffffffffffffffff1614610d44576040517f08c379a0000000000000000000000000000000000000000000000000000000008152600401610d3b90611529565b60405180910390fd5b8073ffffffffffffffffffffffffffffffffffffffff166108fc479081150290604051600060405180830381858888f19350505050158015610d8a573d6000803e3d6000fd5b5050565b60006006600083815260200190815260200160002090508060070160009054906101000a900460ff1615610df7576040517f08c379a0000000000000000000000000000000000000000000000000000000008152600401610dee906119e0565b60405180910390fd5b8060030154471015610e3e576040517f08c379a0000000000000000000000000000000000000000000000000000000008152600401610e3590611b24565b60405180910390fd5b60018160070160006101000a81548160ff0219169083151502179055508060020160009054906101000a900473ffffffffffffffffffffffffffffffffffffffff1673ffffffffffffffffffffffffffffffffffffffff166108fc82600301549081150290604051600060405180830381858888f19350505050158015610ec9573d6000803e3d6000fd5b50817f712ae1383f79ac853f8d882153778e0260ef8f03b504e2866e0593e04d2b291f60405160405180910390a25050565b6000604051905090565b600080fd5b600080fd5b6000819050919050565b610f2281610f0f565b8114610f2d57600080fd5b50565b600081359050610f3f81610f19565b92915050565b600060208284031215610f5b57610f5a610f05565b5b6000610f6984828501610f30565b91505092915050565b600081519050919050565b600082825260208201905092915050565b60005b83811015610fac578082015181840152602081019050610f91565b60008484015250505050565b6000601f19601f8301169050919050565b6000610fd482610f72565b610fde8185610f7d565b9350610fee818560208601610f8e565b610ff781610fb8565b840191505092915050565b600073ffffffffffffffffffffffffffffffffffffffff82169050919050565b600061102d82611002565b9050919050565b61103d81611022565b82525050565b61104c81610f0f565b82525050565b60008115159050919050565b61106781611052565b82525050565b6000610100820190508181036000830152611088818b610fc9565b9050818103602083015261109c818a610fc9565b90506110ab6040830189611034565b6110b86060830188611043565b6110c56080830187611043565b6110d260a0830186611043565b6110df60c0830185611043565b6110ec60e083018461105e565b9998505050505050505050565b600061110482611002565b9050919050565b611114816110f9565b811461111f57600080fd5b50565b6000813590506111318161110b565b92915050565b60006020828403121561114d5761114c610f05565b5b600061115b84828501611122565b91505092915050565b6000602082019050611179600083018461105e565b92915050565b611188816110f9565b82525050565b60006020820190506111a3600083018461117f565b92915050565b600080fd5b600080fd5b7f4e487b7100000000000000000000000000000000000000000000000000000000600052604160045260246000fd5b6111eb82610fb8565b810181811067ffffffffffffffff8211171561120a576112096111b3565b5b80604052505050565b600061121d610efb565b905061122982826111e2565b919050565b600067ffffffffffffffff821115611249576112486111b3565b5b61125282610fb8565b9050602081019050919050565b82818337600083830152505050565b600061128161127c8461122e565b611213565b90508281526020810184848401111561129d5761129c6111ae565b5b6112a884828561125f565b509392505050565b600082601f8301126112c5576112c46111a9565b5b81356112d584826020860161126e565b91505092915050565b6112e781611022565b81146112f257600080fd5b50565b600081359050611304816112de565b92915050565b6000806000806080858703121561132457611323610f05565b5b600085013567ffffffffffffffff81111561134257611341610f0a565b5b61134e878288016112b0565b945050602085013567ffffffffffffffff81111561136f5761136e610f0a565b5b61137b878288016112b0565b935050604061138c878288016112f5565b925050606061139d87828801610f30565b91505092959194509250565b60006020820190506113be6000830184611043565b92915050565b60006101008201905081810360008301526113df818b610fc9565b905081810360208301526113f3818a610fc9565b9050611402604083018961117f565b61140f6060830188611043565b61141c6080830187611043565b61142960a0830186611043565b61143660c0830185611043565b61144360e083018461105e565b9998505050505050505050565b60006020828403121561146657611465610f05565b5b6000611474848285016112f5565b91505092915050565b7f4e487b7100000000000000000000000000000000000000000000000000000000600052602260045260246000fd5b600060028204905060018216806114c457607f821691505b6020821081036114d7576114d661147d565b5b50919050565b7f4f6e6c792073746577617264206d61792063616c6c2074686973000000000000600082015250565b6000611513601a83610f7d565b915061151e826114dd565b602082019050919050565b6000602082019050818103600083015261154281611506565b9050919050565b7f4e6f74206120677561726469616e000000000000000000000000000000000000600082015250565b600061157f600e83610f7d565b915061158a82611549565b602082019050919050565b600060208201905081810360008301526115ae81611572565b9050919050565b60008190508160005260206000209050919050565b60006020601f8301049050919050565b600082821b905092915050565b6000600883026116177fffffffffffffffffffffffffffffffffffffffffffffffffffffffffffffffff826115da565b61162186836115da565b95508019841693508086168417925050509392505050565b6000819050919050565b600061165e61165961165484610f0f565b611639565b610f0f565b9050919050565b6000819050919050565b61167883611643565b61168c61168482611665565b8484546115e7565b825550505050565b600090565b6116a1611694565b6116ac81848461166f565b505050565b5b818110156116d0576116c5600082611699565b6001810190506116b2565b5050565b601f821115611715576116e6816115b5565b6116ef846115ca565b810160208510156116fe578190505b61171261170a856115ca565b8301826116b1565b50505b505050565b600082821c905092915050565b60006117386000198460080261171a565b1980831691505092915050565b60006117518383611727565b9150826002028217905092915050565b61176a82610f72565b67ffffffffffffffff811115611783576117826111b3565b5b61178d82546114ac565b6117988282856116d4565b600060209050601f8311600181146117cb57600084156117b9578287015190505b6117c38582611745565b86555061182b565b601f1984166117d9866115b5565b60005b82811015611801578489015182556001820191506020850194506020810190506117dc565b8683101561181e578489015161181a601f891682611727565b8355505b6001600288020188555050505b505050505050565b7f4e487b7100000000000000000000000000000000000000000000000000000000600052601160045260246000fd5b600061186d82610f0f565b915061187883610f0f565b92508282019050808211156118905761188f611833565b5b92915050565b60006118b16118ac6118a784611002565b611639565b611002565b9050919050565b60006118c382611896565b9050919050565b60006118d5826118b8565b9050919050565b6118e5816118ca565b82525050565b600060a08201905081810360008301526119058188610fc9565b905081810360208301526119198187610fc9565b905061192860408301866118dc565b6119356060830185611043565b6119426080830184611043565b9695505050505050565b600061195782610f0f565b91507fffffffffffffffffffffffffffffffffffffffffffffffffffffffffffffffff820361198957611988611833565b5b600182019050919050565b7f416c726561647920657865637574656400000000000000000000000000000000600082015250565b60006119ca601083610f7d565b91506119d582611994565b602082019050919050565b600060208201905081810360008301526119f9816119bd565b9050919050565b7f416c726561647920617070726f76656400000000000000000000000000000000600082015250565b6000611a36601083610f7d565b9150611a4182611a00565b602082019050919050565b60006020820190508181036000830152611a6581611a29565b9050919050565b7f50726f706f73616c206861732065787069726564000000000000000000000000600082015250565b6000611aa2601483610f7d565b9150611aad82611a6c565b602082019050919050565b60006020820190508181036000830152611ad181611a95565b9050919050565b7f496e73756666696369656e742066756e64730000000000000000000000000000600082015250565b6000611b0e601283610f7d565b9150611b1982611ad8565b602082019050919050565b60006020820190508181036000830152611b3d81611b01565b905091905056fea264697066735822122077c35e06008c3966a3046f815a4c1530e6a62619400984be5aea126f25647a1b64736f6c634300081c0033",
  "linkReferences": {},
  "deployedLinkReferences": {}
}